{
  "contractName": "ArtToken",
  "abi": [
    {
      "inputs": [],
      "payable": false,
      "stateMutability": "nonpayable",
      "type": "constructor"
    },
    {
      "constant": true,
      "inputs": [],
      "name": "totalSupply",
      "outputs": [
        {
          "internalType": "uint256",
          "name": "",
          "type": "uint256"
        }
      ],
      "payable": false,
      "stateMutability": "view",
      "type": "function"
    }
  ],
  "bytecode": "0x6080604052348015600f57600080fd5b50620f42406000819055506084806100286000396000f3fe6080604052348015600f57600080fd5b506004361060285760003560e01c806318160ddd14602d575b600080fd5b60336049565b6040518082815260200191505060405180910390f35b6000548156fea265627a7a72315820d8b57a4ee8511f7734afcf60cb477f2c2c087d34b43d70f6835751be6fcc116264736f6c634300050c0032",
  "source": "pragma solidity ^0.5.1;\n\ncontract ArtToken {\n    // total token supply\n    uint256 public totalSupply;\n\n    // Contructor\n    constructor() public {   \n        totalSupply = 1000000;\n\n    }\n    // Set the total number of tokens\n\n    // Read the total number of tokens\n}",
  "sourcePath": "/Users/vrodikov/workspace/token_sale/contracts/ArtToken.sol",
  "compiler": {
    "name": "solc",
    "version": "0.5.12+commit.7709ece9.Emscripten.clang"
  },
  "schemaVersion": "3.0.20",
  "updatedAt": "2021-03-04T16:58:41.427Z",
  "networkType": "ethereum",
  "devdoc": {
    "methods": {}
  },
  "userdoc": {
    "methods": {}
  }
}